{
  "address": "0x5FbDB2315678afecb367f032d93F642f64180aa3",
  "abi": [
    {
      "inputs": [],
      "stateMutability": "nonpayable",
      "type": "constructor"
    },
    {
      "anonymous": false,
      "inputs": [
        {
          "indexed": true,
          "internalType": "address",
          "name": "owner",
          "type": "address"
        },
        {
          "indexed": true,
          "internalType": "address",
          "name": "approved",
          "type": "address"
        },
        {
          "indexed": true,
          "internalType": "uint256",
          "name": "tokenId",
          "type": "uint256"
        }
      ],
      "name": "Approval",
      "type": "event"
    },
    {
      "anonymous": false,
      "inputs": [
        {
          "indexed": true,
          "internalType": "address",
          "name": "owner",
          "type": "address"
        },
        {
          "indexed": true,
          "internalType": "address",
          "name": "operator",
          "type": "address"
        },
        {
          "indexed": false,
          "internalType": "bool",
          "name": "approved",
          "type": "bool"
        }
      ],
      "name": "ApprovalForAll",
      "type": "event"
    },
    {
      "anonymous": false,
      "inputs": [
        {
          "indexed": true,
          "internalType": "address",
          "name": "previousOwner",
          "type": "address"
        },
        {
          "indexed": true,
          "internalType": "address",
          "name": "newOwner",
          "type": "address"
        }
      ],
      "name": "OwnershipTransferred",
      "type": "event"
    },
    {
      "anonymous": false,
      "inputs": [
        {
          "indexed": true,
          "internalType": "address",
          "name": "from",
          "type": "address"
        },
        {
          "indexed": true,
          "internalType": "address",
          "name": "to",
          "type": "address"
        },
        {
          "indexed": true,
          "internalType": "uint256",
          "name": "tokenId",
          "type": "uint256"
        }
      ],
      "name": "Transfer",
      "type": "event"
    },
    {
      "inputs": [
        {
          "internalType": "address",
          "name": "to",
          "type": "address"
        },
        {
          "internalType": "uint256",
          "name": "tokenId",
          "type": "uint256"
        }
      ],
      "name": "approve",
      "outputs": [],
      "stateMutability": "nonpayable",
      "type": "function"
    },
    {
      "inputs": [
        {
          "internalType": "address",
          "name": "owner",
          "type": "address"
        }
      ],
      "name": "balanceOf",
      "outputs": [
        {
          "internalType": "uint256",
          "name": "",
          "type": "uint256"
        }
      ],
      "stateMutability": "view",
      "type": "function"
    },
    {
      "inputs": [
        {
          "internalType": "uint256",
          "name": "tokenId",
          "type": "uint256"
        }
      ],
      "name": "getApproved",
      "outputs": [
        {
          "internalType": "address",
          "name": "",
          "type": "address"
        }
      ],
      "stateMutability": "view",
      "type": "function"
    },
    {
      "inputs": [
        {
          "internalType": "address",
          "name": "owner",
          "type": "address"
        },
        {
          "internalType": "address",
          "name": "operator",
          "type": "address"
        }
      ],
      "name": "isApprovedForAll",
      "outputs": [
        {
          "internalType": "bool",
          "name": "",
          "type": "bool"
        }
      ],
      "stateMutability": "view",
      "type": "function"
    },
    {
      "inputs": [
        {
          "internalType": "address",
          "name": "to",
          "type": "address"
        },
        {
          "internalType": "string",
          "name": "tokenURI",
          "type": "string"
        }
      ],
      "name": "mintItem",
      "outputs": [
        {
          "internalType": "uint256",
          "name": "",
          "type": "uint256"
        }
      ],
      "stateMutability": "nonpayable",
      "type": "function"
    },
    {
      "inputs": [],
      "name": "name",
      "outputs": [
        {
          "internalType": "string",
          "name": "",
          "type": "string"
        }
      ],
      "stateMutability": "view",
      "type": "function"
    },
    {
      "inputs": [],
      "name": "owner",
      "outputs": [
        {
          "internalType": "address",
          "name": "",
          "type": "address"
        }
      ],
      "stateMutability": "view",
      "type": "function"
    },
    {
      "inputs": [
        {
          "internalType": "uint256",
          "name": "tokenId",
          "type": "uint256"
        }
      ],
      "name": "ownerOf",
      "outputs": [
        {
          "internalType": "address",
          "name": "",
          "type": "address"
        }
      ],
      "stateMutability": "view",
      "type": "function"
    },
    {
      "inputs": [],
      "name": "renounceOwnership",
      "outputs": [],
      "stateMutability": "nonpayable",
      "type": "function"
    },
    {
      "inputs": [
        {
          "internalType": "address",
          "name": "from",
          "type": "address"
        },
        {
          "internalType": "address",
          "name": "to",
          "type": "address"
        },
        {
          "internalType": "uint256",
          "name": "tokenId",
          "type": "uint256"
        }
      ],
      "name": "safeTransferFrom",
      "outputs": [],
      "stateMutability": "nonpayable",
      "type": "function"
    },
    {
      "inputs": [
        {
          "internalType": "address",
          "name": "from",
          "type": "address"
        },
        {
          "internalType": "address",
          "name": "to",
          "type": "address"
        },
        {
          "internalType": "uint256",
          "name": "tokenId",
          "type": "uint256"
        },
        {
          "internalType": "bytes",
          "name": "_data",
          "type": "bytes"
        }
      ],
      "name": "safeTransferFrom",
      "outputs": [],
      "stateMutability": "nonpayable",
      "type": "function"
    },
    {
      "inputs": [
        {
          "internalType": "address",
          "name": "operator",
          "type": "address"
        },
        {
          "internalType": "bool",
          "name": "approved",
          "type": "bool"
        }
      ],
      "name": "setApprovalForAll",
      "outputs": [],
      "stateMutability": "nonpayable",
      "type": "function"
    },
    {
      "inputs": [
        {
          "internalType": "bytes4",
          "name": "interfaceId",
          "type": "bytes4"
        }
      ],
      "name": "supportsInterface",
      "outputs": [
        {
          "internalType": "bool",
          "name": "",
          "type": "bool"
        }
      ],
      "stateMutability": "view",
      "type": "function"
    },
    {
      "inputs": [],
      "name": "symbol",
      "outputs": [
        {
          "internalType": "string",
          "name": "",
          "type": "string"
        }
      ],
      "stateMutability": "view",
      "type": "function"
    },
    {
      "inputs": [
        {
          "internalType": "uint256",
          "name": "index",
          "type": "uint256"
        }
      ],
      "name": "tokenByIndex",
      "outputs": [
        {
          "internalType": "uint256",
          "name": "",
          "type": "uint256"
        }
      ],
      "stateMutability": "view",
      "type": "function"
    },
    {
      "inputs": [
        {
          "internalType": "address",
          "name": "owner",
          "type": "address"
        },
        {
          "internalType": "uint256",
          "name": "index",
          "type": "uint256"
        }
      ],
      "name": "tokenOfOwnerByIndex",
      "outputs": [
        {
          "internalType": "uint256",
          "name": "",
          "type": "uint256"
        }
      ],
      "stateMutability": "view",
      "type": "function"
    },
    {
      "inputs": [
        {
          "internalType": "uint256",
          "name": "tokenId",
          "type": "uint256"
        }
      ],
      "name": "tokenURI",
      "outputs": [
        {
          "internalType": "string",
          "name": "",
          "type": "string"
        }
      ],
      "stateMutability": "view",
      "type": "function"
    },
    {
      "inputs": [],
      "name": "totalSupply",
      "outputs": [
        {
          "internalType": "uint256",
          "name": "",
          "type": "uint256"
        }
      ],
      "stateMutability": "view",
      "type": "function"
    },
    {
      "inputs": [
        {
          "internalType": "address",
          "name": "from",
          "type": "address"
        },
        {
          "internalType": "address",
          "name": "to",
          "type": "address"
        },
        {
          "internalType": "uint256",
          "name": "tokenId",
          "type": "uint256"
        }
      ],
      "name": "transferFrom",
      "outputs": [],
      "stateMutability": "nonpayable",
      "type": "function"
    },
    {
      "inputs": [
        {
          "internalType": "address",
          "name": "newOwner",
          "type": "address"
        }
      ],
      "name": "transferOwnership",
      "outputs": [],
      "stateMutability": "nonpayable",
      "type": "function"
    }
  ],
  "transactionHash": "0xe94b30b5dec147bd4a485244d16c9a78a99ff23ba6f53ff7908fa9bd998a3b70",
  "args": [],
  "solcInputHash": "123f669d5748f1f818fa75170c83f370",
  "bytecode": "0x60806040523480156200001157600080fd5b50604080518082018252600c81526b15d55692115396554813919560a21b60208083019182528351808501909452600684526515d69653919560d21b9084015281519192916200006491600091620000f3565b5080516200007a906001906020840190620000f3565b50505062000097620000916200009d60201b60201c565b620000a1565b620001d6565b3390565b600a80546001600160a01b038381166001600160a01b0319831681179093556040519116919082907f8be0079c531659141344cd1fd0a4f28419497f9722a3daafe3b4186f6b6457e090600090a35050565b828054620001019062000199565b90600052602060002090601f01602090048101928262000125576000855562000170565b82601f106200014057805160ff191683800117855562000170565b8280016001018555821562000170579182015b828111156200017057825182559160200191906001019062000153565b506200017e92915062000182565b5090565b5b808211156200017e576000815560010162000183565b600181811c90821680620001ae57607f821691505b60208210811415620001d057634e487b7160e01b600052602260045260246000fd5b50919050565b611bad80620001e66000396000f3fe608060405234801561001057600080fd5b506004361061012c5760003560e01c80636352211e116100ad578063a22cb46511610071578063a22cb4651461026a578063b88d4fde1461027d578063c87b56dd14610290578063e985e9c5146102a3578063f2fde38b146102df57600080fd5b80636352211e1461022357806370a0823114610236578063715018a6146102495780638da5cb5b1461025157806395d89b411461026257600080fd5b806318160ddd116100f457806318160ddd146101cf57806323b872dd146101d75780632f745c59146101ea57806342842e0e146101fd5780634f6ccce71461021057600080fd5b806301ffc9a71461013157806306fdde0314610159578063081812fc1461016e578063095ea7b314610199578063110bcd45146101ae575b600080fd5b61014461013f366004611873565b6102f2565b60405190151581526020015b60405180910390f35b61016161031d565b604051610150919061195b565b61018161017c3660046118ab565b6103af565b6040516001600160a01b039091168152602001610150565b6101ac6101a736600461184a565b610449565b005b6101c16101bc3660046117eb565b61055f565b604051908152602001610150565b6008546101c1565b6101ac6101e53660046116fd565b6105c2565b6101c16101f836600461184a565b6105f3565b6101ac61020b3660046116fd565b610689565b6101c161021e3660046118ab565b6106a4565b6101816102313660046118ab565b610745565b6101c16102443660046116b1565b6107bc565b6101ac610843565b600a546001600160a01b0316610181565b610161610879565b6101ac6102783660046117b1565b610888565b6101ac61028b366004611738565b610897565b61016161029e3660046118ab565b6108cf565b6101446102b13660046116cb565b6001600160a01b03918216600090815260056020908152604080832093909416825291909152205460ff1690565b6101ac6102ed3660046116b1565b6109b6565b60006001600160e01b0319821663780e9d6360e01b1480610317575061031782610a51565b92915050565b60606000805461032c90611ab5565b80601f016020809104026020016040519081016040528092919081815260200182805461035890611ab5565b80156103a55780601f1061037a576101008083540402835291602001916103a5565b820191906000526020600020905b81548152906001019060200180831161038857829003601f168201915b5050505050905090565b6000818152600260205260408120546001600160a01b031661042d5760405162461bcd60e51b815260206004820152602c60248201527f4552433732313a20617070726f76656420717565727920666f72206e6f6e657860448201526b34b9ba32b73a103a37b5b2b760a11b60648201526084015b60405180910390fd5b506000908152600460205260409020546001600160a01b031690565b600061045482610745565b9050806001600160a01b0316836001600160a01b031614156104c25760405162461bcd60e51b815260206004820152602160248201527f4552433732313a20617070726f76616c20746f2063757272656e74206f776e656044820152603960f91b6064820152608401610424565b336001600160a01b03821614806104de57506104de81336102b1565b6105505760405162461bcd60e51b815260206004820152603860248201527f4552433732313a20617070726f76652063616c6c6572206973206e6f74206f7760448201527f6e6572206e6f7220617070726f76656420666f7220616c6c00000000000000006064820152608401610424565b61055a8383610aa1565b505050565b600a546000906001600160a01b0316331461058c5760405162461bcd60e51b8152600401610424906119c0565b61059a600b80546001019055565b60006105a5600b5490565b90506105b18482610b0f565b6105bb8184610c5d565b9392505050565b6105cc3382610cf7565b6105e85760405162461bcd60e51b8152600401610424906119f5565b61055a838383610dee565b60006105fe836107bc565b82106106605760405162461bcd60e51b815260206004820152602b60248201527f455243373231456e756d657261626c653a206f776e657220696e646578206f7560448201526a74206f6620626f756e647360a81b6064820152608401610424565b506001600160a01b03919091166000908152600660209081526040808320938352929052205490565b61055a83838360405180602001604052806000815250610897565b60006106af60085490565b82106107125760405162461bcd60e51b815260206004820152602c60248201527f455243373231456e756d657261626c653a20676c6f62616c20696e646578206f60448201526b7574206f6620626f756e647360a01b6064820152608401610424565b6008828154811061073357634e487b7160e01b600052603260045260246000fd5b90600052602060002001549050919050565b6000818152600260205260408120546001600160a01b0316806103175760405162461bcd60e51b815260206004820152602960248201527f4552433732313a206f776e657220717565727920666f72206e6f6e657869737460448201526832b73a103a37b5b2b760b91b6064820152608401610424565b60006001600160a01b0382166108275760405162461bcd60e51b815260206004820152602a60248201527f4552433732313a2062616c616e636520717565727920666f7220746865207a65604482015269726f206164647265737360b01b6064820152608401610424565b506001600160a01b031660009081526003602052604090205490565b600a546001600160a01b0316331461086d5760405162461bcd60e51b8152600401610424906119c0565b6108776000610f99565b565b60606001805461032c90611ab5565b610893338383610feb565b5050565b6108a13383610cf7565b6108bd5760405162461bcd60e51b8152600401610424906119f5565b6108c9848484846110ba565b50505050565b6000818152600260205260409020546060906001600160a01b031661094e5760405162461bcd60e51b815260206004820152602f60248201527f4552433732314d657461646174613a2055524920717565727920666f72206e6f60448201526e3732bc34b9ba32b73a103a37b5b2b760891b6064820152608401610424565b600061096560408051602081019091526000815290565b9050600081511161098557604051806020016040528060008152506105bb565b8061098f846110ed565b6040516020016109a09291906118ef565b6040516020818303038152906040529392505050565b600a546001600160a01b031633146109e05760405162461bcd60e51b8152600401610424906119c0565b6001600160a01b038116610a455760405162461bcd60e51b815260206004820152602660248201527f4f776e61626c653a206e6577206f776e657220697320746865207a65726f206160448201526564647265737360d01b6064820152608401610424565b610a4e81610f99565b50565b60006001600160e01b031982166380ac58cd60e01b1480610a8257506001600160e01b03198216635b5e139f60e01b145b8061031757506301ffc9a760e01b6001600160e01b0319831614610317565b600081815260046020526040902080546001600160a01b0319166001600160a01b0384169081179091558190610ad682610745565b6001600160a01b03167f8c5be1e5ebec7d5bd14f71427d1e84f3dd0314c0f7b2291e5b200ac8c7c3b92560405160405180910390a45050565b6001600160a01b038216610b655760405162461bcd60e51b815260206004820181905260248201527f4552433732313a206d696e7420746f20746865207a65726f20616464726573736044820152606401610424565b6000818152600260205260409020546001600160a01b031615610bca5760405162461bcd60e51b815260206004820152601c60248201527f4552433732313a20746f6b656e20616c7265616479206d696e746564000000006044820152606401610424565b610bd660008383611207565b6001600160a01b0382166000908152600360205260408120805460019290610bff908490611a46565b909155505060008181526002602052604080822080546001600160a01b0319166001600160a01b03861690811790915590518392907fddf252ad1be2c89b69c2b068fc378daa952ba7f163c4a11628f55a4df523b3ef908290a45050565b6000828152600260205260409020546001600160a01b0316610cd85760405162461bcd60e51b815260206004820152602e60248201527f45524337323155524953746f726167653a2055524920736574206f66206e6f6e60448201526d32bc34b9ba32b73a103a37b5b2b760911b6064820152608401610424565b6000828152600c60209081526040909120825161055a92840190611586565b6000818152600260205260408120546001600160a01b0316610d705760405162461bcd60e51b815260206004820152602c60248201527f4552433732313a206f70657261746f7220717565727920666f72206e6f6e657860448201526b34b9ba32b73a103a37b5b2b760a11b6064820152608401610424565b6000610d7b83610745565b9050806001600160a01b0316846001600160a01b03161480610db65750836001600160a01b0316610dab846103af565b6001600160a01b0316145b80610de657506001600160a01b0380821660009081526005602090815260408083209388168352929052205460ff165b949350505050565b826001600160a01b0316610e0182610745565b6001600160a01b031614610e695760405162461bcd60e51b815260206004820152602960248201527f4552433732313a207472616e73666572206f6620746f6b656e2074686174206960448201526839903737ba1037bbb760b91b6064820152608401610424565b6001600160a01b038216610ecb5760405162461bcd60e51b8152602060048201526024808201527f4552433732313a207472616e7366657220746f20746865207a65726f206164646044820152637265737360e01b6064820152608401610424565b610ed6838383611207565b610ee1600082610aa1565b6001600160a01b0383166000908152600360205260408120805460019290610f0a908490611a72565b90915550506001600160a01b0382166000908152600360205260408120805460019290610f38908490611a46565b909155505060008181526002602052604080822080546001600160a01b0319166001600160a01b0386811691821790925591518493918716917fddf252ad1be2c89b69c2b068fc378daa952ba7f163c4a11628f55a4df523b3ef91a4505050565b600a80546001600160a01b038381166001600160a01b0319831681179093556040519116919082907f8be0079c531659141344cd1fd0a4f28419497f9722a3daafe3b4186f6b6457e090600090a35050565b816001600160a01b0316836001600160a01b0316141561104d5760405162461bcd60e51b815260206004820152601960248201527f4552433732313a20617070726f766520746f2063616c6c6572000000000000006044820152606401610424565b6001600160a01b03838116600081815260056020908152604080832094871680845294825291829020805460ff191686151590811790915591519182527f17307eab39ab6107e8899845ad3d59bd9653f200f220920489ca2b5937696c31910160405180910390a3505050565b6110c5848484610dee565b6110d1848484846112bf565b6108c95760405162461bcd60e51b81526004016104249061196e565b6060816111115750506040805180820190915260018152600360fc1b602082015290565b8160005b811561113b578061112581611af0565b91506111349050600a83611a5e565b9150611115565b60008167ffffffffffffffff81111561116457634e487b7160e01b600052604160045260246000fd5b6040519080825280601f01601f19166020018201604052801561118e576020820181803683370190505b5090505b8415610de6576111a3600183611a72565b91506111b0600a86611b0b565b6111bb906030611a46565b60f81b8183815181106111de57634e487b7160e01b600052603260045260246000fd5b60200101906001600160f81b031916908160001a905350611200600a86611a5e565b9450611192565b6001600160a01b0383166112625761125d81600880546000838152600960205260408120829055600182018355919091527ff3f7a9fe364faab93b216da50a3214154f22a0a2b415b23a84c8169e8b636ee30155565b611285565b816001600160a01b0316836001600160a01b0316146112855761128583826113cc565b6001600160a01b03821661129c5761055a81611469565b826001600160a01b0316826001600160a01b03161461055a5761055a8282611542565b60006001600160a01b0384163b156113c157604051630a85bd0160e11b81526001600160a01b0385169063150b7a029061130390339089908890889060040161191e565b602060405180830381600087803b15801561131d57600080fd5b505af192505050801561134d575060408051601f3d908101601f1916820190925261134a9181019061188f565b60015b6113a7573d80801561137b576040519150601f19603f3d011682016040523d82523d6000602084013e611380565b606091505b50805161139f5760405162461bcd60e51b81526004016104249061196e565b805181602001fd5b6001600160e01b031916630a85bd0160e11b149050610de6565b506001949350505050565b600060016113d9846107bc565b6113e39190611a72565b600083815260076020526040902054909150808214611436576001600160a01b03841660009081526006602090815260408083208584528252808320548484528184208190558352600790915290208190555b5060009182526007602090815260408084208490556001600160a01b039094168352600681528383209183525290812055565b60085460009061147b90600190611a72565b600083815260096020526040812054600880549394509092849081106114b157634e487b7160e01b600052603260045260246000fd5b9060005260206000200154905080600883815481106114e057634e487b7160e01b600052603260045260246000fd5b600091825260208083209091019290925582815260099091526040808220849055858252812055600880548061152657634e487b7160e01b600052603160045260246000fd5b6001900381819060005260206000200160009055905550505050565b600061154d836107bc565b6001600160a01b039093166000908152600660209081526040808320868452825280832085905593825260079052919091209190915550565b82805461159290611ab5565b90600052602060002090601f0160209004810192826115b457600085556115fa565b82601f106115cd57805160ff19168380011785556115fa565b828001600101855582156115fa579182015b828111156115fa5782518255916020019190600101906115df565b5061160692915061160a565b5090565b5b80821115611606576000815560010161160b565b600067ffffffffffffffff8084111561163a5761163a611b4b565b604051601f8501601f19908116603f0116810190828211818310171561166257611662611b4b565b8160405280935085815286868601111561167b57600080fd5b858560208301376000602087830101525050509392505050565b80356001600160a01b03811681146116ac57600080fd5b919050565b6000602082840312156116c2578081fd5b6105bb82611695565b600080604083850312156116dd578081fd5b6116e683611695565b91506116f460208401611695565b90509250929050565b600080600060608486031215611711578081fd5b61171a84611695565b925061172860208501611695565b9150604084013590509250925092565b6000806000806080858703121561174d578081fd5b61175685611695565b935061176460208601611695565b925060408501359150606085013567ffffffffffffffff811115611786578182fd5b8501601f81018713611796578182fd5b6117a58782356020840161161f565b91505092959194509250565b600080604083850312156117c3578182fd5b6117cc83611695565b9150602083013580151581146117e0578182fd5b809150509250929050565b600080604083850312156117fd578182fd5b61180683611695565b9150602083013567ffffffffffffffff811115611821578182fd5b8301601f81018513611831578182fd5b6118408582356020840161161f565b9150509250929050565b6000806040838503121561185c578182fd5b61186583611695565b946020939093013593505050565b600060208284031215611884578081fd5b81356105bb81611b61565b6000602082840312156118a0578081fd5b81516105bb81611b61565b6000602082840312156118bc578081fd5b5035919050565b600081518084526118db816020860160208601611a89565b601f01601f19169290920160200192915050565b60008351611901818460208801611a89565b835190830190611915818360208801611a89565b01949350505050565b6001600160a01b0385811682528416602082015260408101839052608060608201819052600090611951908301846118c3565b9695505050505050565b6020815260006105bb60208301846118c3565b60208082526032908201527f4552433732313a207472616e7366657220746f206e6f6e20455243373231526560408201527131b2b4bb32b91034b6b83632b6b2b73a32b960711b606082015260800190565b6020808252818101527f4f776e61626c653a2063616c6c6572206973206e6f7420746865206f776e6572604082015260600190565b60208082526031908201527f4552433732313a207472616e736665722063616c6c6572206973206e6f74206f6040820152701ddb995c881b9bdc88185c1c1c9bdd9959607a1b606082015260800190565b60008219821115611a5957611a59611b1f565b500190565b600082611a6d57611a6d611b35565b500490565b600082821015611a8457611a84611b1f565b500390565b60005b83811015611aa4578181015183820152602001611a8c565b838111156108c95750506000910152565b600181811c90821680611ac957607f821691505b60208210811415611aea57634e487b7160e01b600052602260045260246000fd5b50919050565b6000600019821415611b0457611b04611b1f565b5060010190565b600082611b1a57611b1a611b35565b500690565b634e487b7160e01b600052601160045260246000fd5b634e487b7160e01b600052601260045260246000fd5b634e487b7160e01b600052604160045260246000fd5b6001600160e01b031981168114610a4e57600080fdfea2646970667358221220bcd931213d13001006cbd5e5d4e52a170ea99c811c98823e2c23294a281fbc3a64736f6c63430008040033",
  "devdoc": {
    "kind": "dev",
    "methods": {
      "approve(address,uint256)": {
        "details": "See {IERC721-approve}."
      },
      "balanceOf(address)": {
        "details": "See {IERC721-balanceOf}."
      },
      "getApproved(uint256)": {
        "details": "See {IERC721-getApproved}."
      },
      "isApprovedForAll(address,address)": {
        "details": "See {IERC721-isApprovedForAll}."
      },
      "name()": {
        "details": "See {IERC721Metadata-name}."
      },
      "owner()": {
        "details": "Returns the address of the current owner."
      },
      "ownerOf(uint256)": {
        "details": "See {IERC721-ownerOf}."
      },
      "renounceOwnership()": {
        "details": "Leaves the contract without owner. It will not be possible to call `onlyOwner` functions anymore. Can only be called by the current owner. NOTE: Renouncing ownership will leave the contract without an owner, thereby removing any functionality that is only available to the owner."
      },
      "safeTransferFrom(address,address,uint256)": {
        "details": "See {IERC721-safeTransferFrom}."
      },
      "safeTransferFrom(address,address,uint256,bytes)": {
        "details": "See {IERC721-safeTransferFrom}."
      },
      "setApprovalForAll(address,bool)": {
        "details": "See {IERC721-setApprovalForAll}."
      },
      "supportsInterface(bytes4)": {
        "details": "See {IERC165-supportsInterface}."
      },
      "symbol()": {
        "details": "See {IERC721Metadata-symbol}."
      },
      "tokenByIndex(uint256)": {
        "details": "See {IERC721Enumerable-tokenByIndex}."
      },
      "tokenOfOwnerByIndex(address,uint256)": {
        "details": "See {IERC721Enumerable-tokenOfOwnerByIndex}."
      },
      "tokenURI(uint256)": {
        "details": "See {IERC721Metadata-tokenURI}."
      },
      "totalSupply()": {
        "details": "See {IERC721Enumerable-totalSupply}."
      },
      "transferFrom(address,address,uint256)": {
        "details": "See {IERC721-transferFrom}."
      },
      "transferOwnership(address)": {
        "details": "Transfers ownership of the contract to a new account (`newOwner`). Can only be called by the current owner."
      }
    },
    "version": 1
  },
  "userdoc": {
    "kind": "user",
    "methods": {},
    "version": 1
  },
  "storageLayout": {
    "storage": [
      {
        "astId": 130,
        "contract": "contracts/WZYNft.sol:WZYNft",
        "label": "_name",
        "offset": 0,
        "slot": "0",
        "type": "t_string_storage"
      },
      {
        "astId": 132,
        "contract": "contracts/WZYNft.sol:WZYNft",
        "label": "_symbol",
        "offset": 0,
        "slot": "1",
        "type": "t_string_storage"
      },
      {
        "astId": 136,
        "contract": "contracts/WZYNft.sol:WZYNft",
        "label": "_owners",
        "offset": 0,
        "slot": "2",
        "type": "t_mapping(t_uint256,t_address)"
      },
      {
        "astId": 140,
        "contract": "contracts/WZYNft.sol:WZYNft",
        "label": "_balances",
        "offset": 0,
        "slot": "3",
        "type": "t_mapping(t_address,t_uint256)"
      },
      {
        "astId": 144,
        "contract": "contracts/WZYNft.sol:WZYNft",
        "label": "_tokenApprovals",
        "offset": 0,
        "slot": "4",
        "type": "t_mapping(t_uint256,t_address)"
      },
      {
        "astId": 150,
        "contract": "contracts/WZYNft.sol:WZYNft",
        "label": "_operatorApprovals",
        "offset": 0,
        "slot": "5",
        "type": "t_mapping(t_address,t_mapping(t_address,t_bool))"
      },
      {
        "astId": 1084,
        "contract": "contracts/WZYNft.sol:WZYNft",
        "label": "_ownedTokens",
        "offset": 0,
        "slot": "6",
        "type": "t_mapping(t_address,t_mapping(t_uint256,t_uint256))"
      },
      {
        "astId": 1088,
        "contract": "contracts/WZYNft.sol:WZYNft",
        "label": "_ownedTokensIndex",
        "offset": 0,
        "slot": "7",
        "type": "t_mapping(t_uint256,t_uint256)"
      },
      {
        "astId": 1091,
        "contract": "contracts/WZYNft.sol:WZYNft",
        "label": "_allTokens",
        "offset": 0,
        "slot": "8",
        "type": "t_array(t_uint256)dyn_storage"
      },
      {
        "astId": 1095,
        "contract": "contracts/WZYNft.sol:WZYNft",
        "label": "_allTokensIndex",
        "offset": 0,
        "slot": "9",
        "type": "t_mapping(t_uint256,t_uint256)"
      },
      {
        "astId": 7,
        "contract": "contracts/WZYNft.sol:WZYNft",
        "label": "_owner",
        "offset": 0,
        "slot": "10",
        "type": "t_address"
      },
      {
        "astId": 2113,
        "contract": "contracts/WZYNft.sol:WZYNft",
        "label": "_tokenIds",
        "offset": 0,
        "slot": "11",
        "type": "t_struct(Counter)1790_storage"
      },
      {
        "astId": 2117,
        "contract": "contracts/WZYNft.sol:WZYNft",
        "label": "_tokenURIs",
        "offset": 0,
        "slot": "12",
        "type": "t_mapping(t_uint256,t_string_storage)"
      }
    ],
    "types": {
      "t_address": {
        "encoding": "inplace",
        "label": "address",
        "numberOfBytes": "20"
      },
      "t_array(t_uint256)dyn_storage": {
        "base": "t_uint256",
        "encoding": "dynamic_array",
        "label": "uint256[]",
        "numberOfBytes": "32"
      },
      "t_bool": {
        "encoding": "inplace",
        "label": "bool",
        "numberOfBytes": "1"
      },
      "t_mapping(t_address,t_bool)": {
        "encoding": "mapping",
        "key": "t_address",
        "label": "mapping(address => bool)",
        "numberOfBytes": "32",
        "value": "t_bool"
      },
      "t_mapping(t_address,t_mapping(t_address,t_bool))": {
        "encoding": "mapping",
        "key": "t_address",
        "label": "mapping(address => mapping(address => bool))",
        "numberOfBytes": "32",
        "value": "t_mapping(t_address,t_bool)"
      },
      "t_mapping(t_address,t_mapping(t_uint256,t_uint256))": {
        "encoding": "mapping",
        "key": "t_address",
        "label": "mapping(address => mapping(uint256 => uint256))",
        "numberOfBytes": "32",
        "value": "t_mapping(t_uint256,t_uint256)"
      },
      "t_mapping(t_address,t_uint256)": {
        "encoding": "mapping",
        "key": "t_address",
        "label": "mapping(address => uint256)",
        "numberOfBytes": "32",
        "value": "t_uint256"
      },
      "t_mapping(t_uint256,t_address)": {
        "encoding": "mapping",
        "key": "t_uint256",
        "label": "mapping(uint256 => address)",
        "numberOfBytes": "32",
        "value": "t_address"
      },
      "t_mapping(t_uint256,t_string_storage)": {
        "encoding": "mapping",
        "key": "t_uint256",
        "label": "mapping(uint256 => string)",
        "numberOfBytes": "32",
        "value": "t_string_storage"
      },
      "t_mapping(t_uint256,t_uint256)": {
        "encoding": "mapping",
        "key": "t_uint256",
        "label": "mapping(uint256 => uint256)",
        "numberOfBytes": "32",
        "value": "t_uint256"
      },
      "t_string_storage": {
        "encoding": "bytes",
        "label": "string",
        "numberOfBytes": "32"
      },
      "t_struct(Counter)1790_storage": {
        "encoding": "inplace",
        "label": "struct Counters.Counter",
        "members": [
          {
            "astId": 1789,
            "contract": "contracts/WZYNft.sol:WZYNft",
            "label": "_value",
            "offset": 0,
            "slot": "0",
            "type": "t_uint256"
          }
        ],
        "numberOfBytes": "32"
      },
      "t_uint256": {
        "encoding": "inplace",
        "label": "uint256",
        "numberOfBytes": "32"
      }
    }
  }
}